{
  "contractName": "ImdbPerceptron",
  "abi": [
    {
      "inputs": [
        {
          "internalType": "int80[]",
          "name": "_weights",
          "type": "int80[]"
        },
        {
          "internalType": "int80",
          "name": "_intercept",
          "type": "int80"
        },
        {
          "internalType": "uint32",
          "name": "_learningRate",
          "type": "uint32"
        }
      ],
      "stateMutability": "nonpayable",
      "type": "constructor"
    },
    {
      "inputs": [],
      "name": "intercept",
      "outputs": [
        {
          "internalType": "int80",
          "name": "",
          "type": "int80"
        }
      ],
      "stateMutability": "view",
      "type": "function"
    },
    {
      "inputs": [],
      "name": "learningRate",
      "outputs": [
        {
          "internalType": "uint32",
          "name": "",
          "type": "uint32"
        }
      ],
      "stateMutability": "view",
      "type": "function"
    },
    {
      "inputs": [],
      "name": "owner",
      "outputs": [
        {
          "internalType": "address",
          "name": "",
          "type": "address"
        }
      ],
      "stateMutability": "view",
      "type": "function"
    },
    {
      "inputs": [
        {
          "internalType": "address",
          "name": "newOwner",
          "type": "address"
        }
      ],
      "name": "transferOwnership",
      "outputs": [],
      "stateMutability": "nonpayable",
      "type": "function"
    },
    {
      "inputs": [
        {
          "internalType": "uint64",
          "name": "",
          "type": "uint64"
        }
      ],
      "name": "weights",
      "outputs": [
        {
          "internalType": "int80",
          "name": "",
          "type": "int80"
        }
      ],
      "stateMutability": "view",
      "type": "function"
    },
    {
      "inputs": [
        {
          "internalType": "uint64",
          "name": "startIndex",
          "type": "uint64"
        },
        {
          "internalType": "int80[]",
          "name": "_weights",
          "type": "int80[]"
        }
      ],
      "name": "initializeWeights",
      "outputs": [],
      "stateMutability": "nonpayable",
      "type": "function"
    },
    {
      "inputs": [
        {
          "internalType": "int80[][]",
          "name": "_weights",
          "type": "int80[][]"
        }
      ],
      "name": "initializeSparseWeights",
      "outputs": [],
      "stateMutability": "nonpayable",
      "type": "function"
    },
    {
      "inputs": [
        {
          "internalType": "int64[]",
          "name": "",
          "type": "int64[]"
        }
      ],
      "name": "norm",
      "outputs": [
        {
          "internalType": "uint256",
          "name": "",
          "type": "uint256"
        }
      ],
      "stateMutability": "pure",
      "type": "function"
    },
    {
      "inputs": [
        {
          "internalType": "int64[]",
          "name": "data",
          "type": "int64[]"
        }
      ],
      "name": "predict",
      "outputs": [
        {
          "internalType": "uint64",
          "name": "",
          "type": "uint64"
        }
      ],
      "stateMutability": "view",
      "type": "function"
    },
    {
      "inputs": [
        {
          "internalType": "int64[]",
          "name": "data",
          "type": "int64[]"
        },
        {
          "internalType": "uint64",
          "name": "classification",
          "type": "uint64"
        }
      ],
      "name": "update",
      "outputs": [],
      "stateMutability": "nonpayable",
      "type": "function"
    },
    {
      "inputs": [
        {
          "internalType": "uint24[60][]",
          "name": "dataBatch",
          "type": "uint24[60][]"
        },
        {
          "internalType": "uint64[]",
          "name": "_classifications",
          "type": "uint64[]"
        }
      ],
      "name": "evaluateBatch",
      "outputs": [
        {
          "internalType": "uint256",
          "name": "numCorrect",
          "type": "uint256"
        }
      ],
      "stateMutability": "view",
      "type": "function"
    }
  ],
  "bytecode": "0x60806040523480156200001157600080fd5b5060405162001a2938038062001a29833981810160405262000037919081019062000274565b336000806101000a81548173ffffffffffffffffffffffffffffffffffffffff021916908373ffffffffffffffffffffffffffffffffffffffff16021790555081600260006101000a81548169ffffffffffffffffffff021916908360090b69ffffffffffffffffffff160217905550806002600a6101000a81548163ffffffff021916908363ffffffff16021790555067ffffffffffffffff83511062000116576040517f08c379a00000000000000000000000000000000000000000000000000000000081526004016200010d9062000325565b60405180910390fd5b60008090505b83518167ffffffffffffffff161015620001af57838167ffffffffffffffff16815181106200014757fe5b6020026020010151600160008367ffffffffffffffff1667ffffffffffffffff16815260200190815260200160002060006101000a81548169ffffffffffffffffffff021916908360090b69ffffffffffffffffffff1602179055508060010190506200011c565b5050505062000400565b600082601f830112620001cb57600080fd5b8151620001e2620001dc8262000375565b62000347565b915081818352602084019350602081019050838560208402820111156200020857600080fd5b60005b838110156200023c578162000221888262000246565b8452602084019350602083019250506001810190506200020b565b5050505092915050565b6000815190506200025781620003cc565b92915050565b6000815190506200026e81620003e6565b92915050565b6000806000606084860312156200028a57600080fd5b600084015167ffffffffffffffff811115620002a557600080fd5b620002b386828701620001b9565b9350506020620002c68682870162000246565b9250506040620002d9868287016200025d565b9150509250925092565b6000620002f26017836200039e565b91507f546f6f206d616e79207765696768747320676976656e2e0000000000000000006000830152602082019050919050565b600060208201905081810360008301526200034081620002e3565b9050919050565b6000604051905081810181811067ffffffffffffffff821117156200036b57600080fd5b8060405250919050565b600067ffffffffffffffff8211156200038d57600080fd5b602082029050602081019050919050565b600082825260208201905092915050565b60008160090b9050919050565b600063ffffffff82169050919050565b620003d781620003af565b8114620003e357600080fd5b50565b620003f181620003bc565b8114620003fd57600080fd5b50565b61161980620004106000396000f3fe608060405234801561001057600080fd5b50600436106100a95760003560e01c80635f7066a2116100715780635f7066a214610166578063788b9fcb146101965780638da5cb5b146101b2578063bd7a1d61146101d0578063d462f611146101ec578063f2fde38b1461021c576100a9565b80631396f97b146100ae57806319c13767146100ca57806320930f53146100e85780633766bf191461011857806349897d2814610136575b600080fd5b6100c860048036036100c39190810190610f2f565b610238565b005b6100d26103dc565b6040516100df9190611303565b60405180910390f35b61010260048036036100fd9190810190610f70565b6103ef565b60405161010f91906113de565b60405180910390f35b610120610543565b60405161012d91906113f9565b60405180910390f35b610150600480360361014b9190810190610fe5565b610559565b60405161015d91906113de565b60405180910390f35b610180600480360361017b9190810190610fe5565b610596565b60405161018d9190611414565b60405180910390f35b6101b060048036036101ab91908101906110a3565b61069f565b005b6101ba6107cb565b6040516101c791906112e8565b60405180910390f35b6101ea60048036036101e59190810190611026565b6107f0565b005b6102066004803603610201919081019061107a565b610a23565b6040516102139190611303565b60405180910390f35b61023660048036036102319190810190610f06565b610a43565b005b6000809054906101000a900473ffffffffffffffffffffffffffffffffffffffff1673ffffffffffffffffffffffffffffffffffffffff163373ffffffffffffffffffffffffffffffffffffffff16146102c7576040517f08c379a00000000000000000000000000000000000000000000000000000000081526004016102be9061139e565b60405180910390fd5b60008090505b81518110156103d85760008282815181106102e457fe5b60200260200101516000815181106102f857fe5b60200260200101519050680100000000000000008160090b12610350576040517f08c379a00000000000000000000000000000000000000000000000000000000081526004016103479061135e565b60405180910390fd5b82828151811061035c57fe5b602002602001015160018151811061037057fe5b6020026020010151600160008367ffffffffffffffff1667ffffffffffffffff16815260200190815260200160002060006101000a81548169ffffffffffffffffffff021916908360090b69ffffffffffffffffffff160217905550508060010190506102cd565b5050565b600260009054906101000a900460090b81565b60008090506000858590509050600080610407610bfd565b600080600090505b85811015610535578a8a8281811061042357fe5b90506107800201603c806020026040519081016040528092919082603c60200280828437600081840152601f19601f8201169050808301925050505050509250600260009054906101000a900460090b9150603c9350600094505b838510156104d557600160008487603c811061049657fe5b602002015162ffffff1667ffffffffffffffff16815260200190815260200160002060009054906101000a900460090b8201915084600101945061047e565b60008260090b136104e957600091506104ee565b600191505b8888828181106104fa57fe5b905060200201602061050f919081019061107a565b67ffffffffffffffff168260090b141561052a576001870196505b80600101905061040f565b505050505050949350505050565b6002600a9054906101000a900463ffffffff1681565b60006040517f08c379a000000000000000000000000000000000000000000000000000000000815260040161058d9061133e565b60405180910390fd5b600080600260009054906101000a900460090b60090b905060008090505b83518110156106815760008482815181106105cb57fe5b602002602001015160070b1215610617576040517f08c379a000000000000000000000000000000000000000000000000000000000815260040161060e906113be565b60405180910390fd5b6106746001600086848151811061062a57fe5b602002602001015167ffffffffffffffff1667ffffffffffffffff16815260200190815260200160002060009054906101000a900460090b60090b83610b8590919063ffffffff16565b91508060010190506105b4565b506000811361069457600091505061069a565b60019150505b919050565b6000809054906101000a900473ffffffffffffffffffffffffffffffffffffffff1673ffffffffffffffffffffffffffffffffffffffff163373ffffffffffffffffffffffffffffffffffffffff161461072e576040517f08c379a00000000000000000000000000000000000000000000000000000000081526004016107259061139e565b60405180910390fd5b60008090505b81518167ffffffffffffffff1610156107c657818167ffffffffffffffff168151811061075d57fe5b60200260200101516001600083860167ffffffffffffffff1667ffffffffffffffff16815260200190815260200160002060006101000a81548169ffffffffffffffffffff021916908360090b69ffffffffffffffffffff160217905550806001019050610734565b505050565b6000809054906101000a900473ffffffffffffffffffffffffffffffffffffffff1681565b6000809054906101000a900473ffffffffffffffffffffffffffffffffffffffff1673ffffffffffffffffffffffffffffffffffffffff163373ffffffffffffffffffffffffffffffffffffffff161461087f576040517f08c379a00000000000000000000000000000000000000000000000000000000081526004016108769061139e565b60405180910390fd5b600061088a83610596565b90508167ffffffffffffffff168167ffffffffffffffff1614610a1e576000808451905060008467ffffffffffffffff16111561097057600091505b8082101561096b576002600a9054906101000a900463ffffffff1663ffffffff16600160008785815181106108f757fe5b602002602001015167ffffffffffffffff1667ffffffffffffffff16815260200190815260200160002060008282829054906101000a900460090b0192506101000a81548169ffffffffffffffffffff021916908360090b69ffffffffffffffffffff1602179055508160010191506108c6565b610a1b565b600091505b80821015610a1a576002600a9054906101000a900463ffffffff1663ffffffff16600160008785815181106109a657fe5b602002602001015167ffffffffffffffff1667ffffffffffffffff16815260200190815260200160002060008282829054906101000a900460090b0392506101000a81548169ffffffffffffffffffff021916908360090b69ffffffffffffffffffff160217905550816001019150610975565b5b50505b505050565b60016020528060005260406000206000915054906101000a900460090b81565b6000809054906101000a900473ffffffffffffffffffffffffffffffffffffffff1673ffffffffffffffffffffffffffffffffffffffff163373ffffffffffffffffffffffffffffffffffffffff1614610ad2576040517f08c379a0000000000000000000000000000000000000000000000000000000008152600401610ac99061139e565b60405180910390fd5b600073ffffffffffffffffffffffffffffffffffffffff168173ffffffffffffffffffffffffffffffffffffffff161415610b42576040517f08c379a0000000000000000000000000000000000000000000000000000000008152600401610b399061131e565b60405180910390fd5b806000806101000a81548173ffffffffffffffffffffffffffffffffffffffff021916908373ffffffffffffffffffffffffffffffffffffffff16021790555050565b600080828401905060008312158015610b9e5750838112155b80610bb45750600083128015610bb357508381125b5b610bf3576040517f08c379a0000000000000000000000000000000000000000000000000000000008152600401610bea9061137e565b60405180910390fd5b8091505092915050565b604051806107800160405280603c90602082028038833980820191505090505090565b600081359050610c2f81611587565b92915050565b600082601f830112610c4657600080fd5b8135610c59610c548261145c565b61142f565b9150818183526020840193506020810190508360005b83811015610c9f5781358601610c858882610d77565b845260208401935060208301925050600181019050610c6f565b5050505092915050565b60008083601f840112610cbb57600080fd5b8235905067ffffffffffffffff811115610cd457600080fd5b60208301915083610780820283011115610ced57600080fd5b9250929050565b600082601f830112610d0557600080fd5b8135610d18610d1382611484565b61142f565b91508181835260208401935060208101905083856020840282011115610d3d57600080fd5b60005b83811015610d6d5781610d538882610ec7565b845260208401935060208301925050600181019050610d40565b5050505092915050565b600082601f830112610d8857600080fd5b8135610d9b610d96826114ac565b61142f565b91508181835260208401935060208101905083856020840282011115610dc057600080fd5b60005b83811015610df05781610dd68882610edc565b845260208401935060208301925050600181019050610dc3565b5050505092915050565b600082601f830112610e0b57600080fd5b8135610e1e610e19826114d4565b61142f565b91508181835260208401935060208101905083856020840282011115610e4357600080fd5b60005b83811015610e735781610e598882610edc565b845260208401935060208301925050600181019050610e46565b5050505092915050565b60008083601f840112610e8f57600080fd5b8235905067ffffffffffffffff811115610ea857600080fd5b602083019150836020820283011115610ec057600080fd5b9250929050565b600081359050610ed68161159e565b92915050565b600081359050610eeb816115b5565b92915050565b600081359050610f00816115cc565b92915050565b600060208284031215610f1857600080fd5b6000610f2684828501610c20565b91505092915050565b600060208284031215610f4157600080fd5b600082013567ffffffffffffffff811115610f5b57600080fd5b610f6784828501610c35565b91505092915050565b60008060008060408587031215610f8657600080fd5b600085013567ffffffffffffffff811115610fa057600080fd5b610fac87828801610ca9565b9450945050602085013567ffffffffffffffff811115610fcb57600080fd5b610fd787828801610e7d565b925092505092959194509250565b600060208284031215610ff757600080fd5b600082013567ffffffffffffffff81111561101157600080fd5b61101d84828501610cf4565b91505092915050565b6000806040838503121561103957600080fd5b600083013567ffffffffffffffff81111561105357600080fd5b61105f85828601610cf4565b925050602061107085828601610ef1565b9150509250929050565b60006020828403121561108c57600080fd5b600061109a84828501610ef1565b91505092915050565b600080604083850312156110b657600080fd5b60006110c485828601610ef1565b925050602083013567ffffffffffffffff8111156110e157600080fd5b6110ed85828601610dfa565b9150509250929050565b6111008161150d565b82525050565b61110f8161152c565b82525050565b60006111226018836114fc565b91507f4e6577206f776e65722063616e6e6f74206265203078302e00000000000000006000830152602082019050919050565b6000611162601e836114fc565b91507f4e6f726d616c697a6174696f6e206973206e6f742072657175697265642e00006000830152602082019050919050565b60006111a2601d836114fc565b91507f41206665617475726520696e64657820697320746f6f206c617267652e0000006000830152602082019050919050565b60006111e26021836114fc565b91507f5369676e6564536166654d6174683a206164646974696f6e206f766572666c6f60008301527f77000000000000000000000000000000000000000000000000000000000000006020830152604082019050919050565b60006112486018836114fc565b91507f53656e646572206973206e6f7420746865206f776e65722e00000000000000006000830152602082019050919050565b60006112886019836114fc565b91507f4e6f7420616c6c20696e646963657320617265203e3d20302e000000000000006000830152602082019050919050565b6112c481611559565b82525050565b6112d381611563565b82525050565b6112e281611573565b82525050565b60006020820190506112fd60008301846110f7565b92915050565b60006020820190506113186000830184611106565b92915050565b6000602082019050818103600083015261133781611115565b9050919050565b6000602082019050818103600083015261135781611155565b9050919050565b6000602082019050818103600083015261137781611195565b9050919050565b60006020820190508181036000830152611397816111d5565b9050919050565b600060208201905081810360008301526113b78161123b565b9050919050565b600060208201905081810360008301526113d78161127b565b9050919050565b60006020820190506113f360008301846112bb565b92915050565b600060208201905061140e60008301846112ca565b92915050565b600060208201905061142960008301846112d9565b92915050565b6000604051905081810181811067ffffffffffffffff8211171561145257600080fd5b8060405250919050565b600067ffffffffffffffff82111561147357600080fd5b602082029050602081019050919050565b600067ffffffffffffffff82111561149b57600080fd5b602082029050602081019050919050565b600067ffffffffffffffff8211156114c357600080fd5b602082029050602081019050919050565b600067ffffffffffffffff8211156114eb57600080fd5b602082029050602081019050919050565b600082825260208201905092915050565b600061151882611539565b9050919050565b60008160070b9050919050565b60008160090b9050919050565b600073ffffffffffffffffffffffffffffffffffffffff82169050919050565b6000819050919050565b600063ffffffff82169050919050565b600067ffffffffffffffff82169050919050565b6115908161150d565b811461159b57600080fd5b50565b6115a78161151f565b81146115b257600080fd5b50565b6115be8161152c565b81146115c957600080fd5b50565b6115d581611573565b81146115e057600080fd5b5056fea26469706673582212202b416d61c3f2025e7769810699833466cc95673cdaac9597e779754f740464a764736f6c63430006020033",
  "source": "pragma solidity ^0.6;\r\npragma experimental ABIEncoderV2;\r\n\r\nimport \"./lib/SignedSafeMath.sol\";\r\n\r\nimport {Ownable} from \"./ownership/Ownable.sol\";\r\n\r\n/**\r\n * A Perceptron where the data given for updating and predicting is sparse.\r\n * `update` and `predict` methods take `data` that holds the indices of the features that are present.\r\n */\r\ncontract ImdbPerceptron is Ownable{\r\n    using SignedSafeMath for int256;\r\n\r\n    /**\r\n     * The weights for the model.\r\n     * Multiplied by `toFloat`.\r\n     */\r\n    mapping(uint64 => int80) public weights;\r\n\r\n    /**\r\n     * The bias to add to the multiplication of the weights and the data.\r\n     * Multiplied by `toFloat`.\r\n     */\r\n    int80 public intercept;\r\n\r\n    /**\r\n     * The amount of impact that new training data has to the weights.\r\n     * Multiplied by `toFloat`.\r\n     */\r\n    uint32 public learningRate;\r\n\r\n    /**\r\n     * @param _weights The weights for the model. Each multiplied by `toFloat`.\r\n     * @param _intercept The bias to add to the multiplication of the weights and the data. Multiplied by `toFloat`.\r\n     * @param _learningRate (Optional, defaults to 1). The amount of impact that new training data has to the weights.\r\n     Multiplied by `toFloat`.\r\n     */\r\n    constructor(\r\n        int80[] memory _weights,\r\n        int80 _intercept,\r\n        uint32 _learningRate\r\n    ) public {\r\n        intercept = _intercept;\r\n        learningRate = _learningRate;\r\n\r\n        require(_weights.length < 2**64 - 1, \"Too many weights given.\");\r\n        for (uint64 i = 0; i < _weights.length; ++i) {\r\n            weights[i] = _weights[i];\r\n        }\r\n    }\r\n\r\n    /**\r\n     * Initialize weights for the model.\r\n     * Made to be called just after the contract is created and never again.\r\n     * @param startIndex The index to start placing `_weights` into the model's weights.\r\n     * @param _weights The weights to set for the model.\r\n     */\r\n    function initializeWeights(uint64 startIndex, int80[] memory _weights) public onlyOwner {\r\n        for (uint64 i = 0; i < _weights.length; ++i) {\r\n            weights[startIndex + i] = _weights[i];\r\n        }\r\n    }\r\n\r\n    /**\r\n     * Initialize sparse weights for the model.\r\n     * Made to be called just after the contract is created and never again.\r\n     * @param _weights A sparse representation of the weights.\r\n     * Each innermost array is a tuple of the feature index and the weight for that feature.\r\n     */\r\n    function initializeSparseWeights(int80[][] memory _weights) public onlyOwner {\r\n        for (uint i = 0; i < _weights.length; ++i) {\r\n            int80 featureIndex = _weights[i][0];\r\n            require(featureIndex < 2 ** 64, \"A feature index is too large.\");\r\n            weights[uint64(featureIndex)] = _weights[i][1];\r\n        }\r\n    }\r\n\r\n    function norm(int64[] memory /* data */) public pure returns (uint) {\r\n        revert(\"Normalization is not required.\");\r\n    }\r\n\r\n    function predict(int64[] memory data) public view returns (uint64) {\r\n        int m = intercept;\r\n        for (uint i = 0; i < data.length; ++i) {\r\n            // `update` assumes this check is done.\r\n            require(data[i] >= 0, \"Not all indices are >= 0.\");\r\n            m = m.add(weights[uint64(data[i])]);\r\n        }\r\n        if (m <= 0) {\r\n            return 0;\r\n        } else {\r\n            return 1;\r\n        }\r\n    }\r\n\r\n    function update(int64[] memory data, uint64 classification) public onlyOwner {\r\n        // `data` holds the indices of the features that are present.\r\n        uint64 prediction = predict(data);\r\n        if (prediction != classification) {\r\n            // Update model.\r\n            // predict checks each data[i] >= 0.\r\n            uint i;\r\n            uint len = data.length;\r\n            if (classification > 0) {\r\n                // sign = 1\r\n                for(i = 0; i < len; ++i) {\r\n                    weights[uint64(data[i])] += learningRate;\r\n                }\r\n            } else {\r\n                // sign = -1\r\n                for(i = 0; i < len; ++i) {\r\n                    weights[uint64(data[i])] -= learningRate;\r\n                }\r\n            }\r\n        }\r\n    }\r\n\r\n    /**\r\n     * Evaluate a batch.\r\n     *\r\n     * Force samples to have a size of 60 because about 78% of the IMDB test data has less than 60 tokens. If the sample has less than 60 unique tokens, then use a value > weights.length.\r\n     *\r\n     * @return numCorrect The number correct in the batch.\r\n     */\r\n    function evaluateBatch(uint24[60][] calldata dataBatch, uint64[] calldata _classifications) external view returns (uint numCorrect) {\r\n        numCorrect = 0;\r\n        uint len = dataBatch.length;\r\n        uint i;\r\n        uint dataLen;\r\n        uint24[60] memory data;\r\n        int80 prediction;\r\n        for (uint dataIndex = 0; dataIndex < len; ++dataIndex) {\r\n            data = dataBatch[dataIndex];\r\n            // Re-implement prediction for speed and to handle the type of data not matching.\r\n            prediction = intercept;\r\n            dataLen = data.length;\r\n            for (i = 0; i < dataLen; ++i) {\r\n                prediction += weights[data[i]];\r\n            }\r\n            if (prediction <= 0) {\r\n                prediction = 0;\r\n            } else {\r\n                prediction = 1;\r\n            }\r\n\r\n            if (prediction == _classifications[dataIndex]) {\r\n                numCorrect += 1;\r\n            }\r\n        }\r\n    }\r\n}\r\n",
  "sourcePath": "D:\\blockchain\\blockchain\\etheruem\\truffle-react\\contracts\\ImdbPerceptron.sol",
  "compiler": {
    "name": "solc",
    "version": "0.6.2+commit.bacdbe57.Emscripten.clang"
  },
  "schemaVersion": "3.4.3",
  "updatedAt": "2021-12-31T11:29:14.622Z",
  "devdoc": {
    "methods": {
      "constructor": {
        "params": {
          "_intercept": "The bias to add to the multiplication of the weights and the data. Multiplied by `toFloat`.",
          "_learningRate": "(Optional, defaults to 1). The amount of impact that new training data has to the weights. Multiplied by `toFloat`.",
          "_weights": "The weights for the model. Each multiplied by `toFloat`."
        }
      },
      "initializeSparseWeights(int80[][])": {
        "params": {
          "_weights": "A sparse representation of the weights. Each innermost array is a tuple of the feature index and the weight for that feature."
        }
      },
      "initializeWeights(uint64,int80[])": {
        "params": {
          "_weights": "The weights to set for the model.",
          "startIndex": "The index to start placing `_weights` into the model's weights."
        }
      }
    }
  },
  "userdoc": {
    "methods": {
      "evaluateBatch(uint24[60][],uint64[])": {
        "notice": "Evaluate a batch.      * Force samples to have a size of 60 because about 78% of the IMDB test data has less than 60 tokens. If the sample has less than 60 unique tokens, then use a value > weights.length. "
      },
      "initializeSparseWeights(int80[][])": {
        "notice": "Initialize sparse weights for the model. Made to be called just after the contract is created and never again."
      },
      "initializeWeights(uint64,int80[])": {
        "notice": "Initialize weights for the model. Made to be called just after the contract is created and never again."
      }
    },
    "notice": "A Perceptron where the data given for updating and predicting is sparse. `update` and `predict` methods take `data` that holds the indices of the features that are present."
  }
}