{
  "contractName": "IpArray",
  "abi": [
    {
      "inputs": [
        {
          "internalType": "string",
          "name": "ipAddress",
          "type": "string"
        }
      ],
      "name": "addNode",
      "outputs": [
        {
          "internalType": "string[]",
          "name": "",
          "type": "string[]"
        }
      ],
      "stateMutability": "nonpayable",
      "type": "function"
    },
    {
      "inputs": [],
      "name": "getNodes",
      "outputs": [
        {
          "internalType": "string[]",
          "name": "",
          "type": "string[]"
        }
      ],
      "stateMutability": "view",
      "type": "function",
      "constant": true
    },
    {
      "inputs": [],
      "name": "clearNodes",
      "outputs": [],
      "stateMutability": "nonpayable",
      "type": "function"
    }
  ],
  "bytecode": "0x608060405260405180602001604052806040518060400160405280600881526020017f6669727374206970000000000000000000000000000000000000000000000000815250815250600090600161005892919061006b565b5034801561006557600080fd5b506101e4565b8280548282559060005260206000209081019282156100ba579160200282015b828111156100b95782518290805190602001906100a99291906100cb565b509160200191906001019061008b565b5b5090506100c7919061014b565b5090565b828054600181600116156101000203166002900490600052602060002090601f016020900481019282601f1061010c57805160ff191683800117855561013a565b8280016001018555821561013a579182015b8281111561013957825182559160200191906001019061011e565b5b5090506101479190610177565b5090565b61017491905b808211156101705760008181610167919061019c565b50600101610151565b5090565b90565b61019991905b8082111561019557600081600090555060010161017d565b5090565b90565b50805460018160011615610100020316600290046000825580601f106101c257506101e1565b601f0160209004906000526020600020908101906101e09190610177565b5b50565b6106a7806101f36000396000f3fe608060405234801561001057600080fd5b50600436106100415760003560e01c80638994dd8e14610046578063e29581aa14610076578063f726410714610094575b600080fd5b610060600480360361005b919081019061044b565b61009e565b60405161006d919061054e565b60405180910390f35b61007e6101c5565b60405161008b919061054e565b60405180910390f35b61009c6102ae565b005b60606000829080600181540180825580915050600190039060005260206000200160009091909190915090805190602001906100db9291906102bd565b506000805480602002602001604051908101604052809291908181526020016000905b828210156101ba578382906000526020600020018054600181600116156101000203166002900480601f0160208091040260200160405190810160405280929190818152602001828054600181600116156101000203166002900480156101a65780601f1061017b576101008083540402835291602001916101a6565b820191906000526020600020905b81548152906001019060200180831161018957829003601f168201915b5050505050815260200190600101906100fe565b505050509050919050565b60606000805480602002602001604051908101604052809291908181526020016000905b828210156102a5578382906000526020600020018054600181600116156101000203166002900480601f0160208091040260200160405190810160405280929190818152602001828054600181600116156101000203166002900480156102915780601f1061026657610100808354040283529160200191610291565b820191906000526020600020905b81548152906001019060200180831161027457829003601f168201915b5050505050815260200190600101906101e9565b50505050905090565b6000806102bb919061033d565b565b828054600181600116156101000203166002900490600052602060002090601f016020900481019282601f106102fe57805160ff191683800117855561032c565b8280016001018555821561032c579182015b8281111561032b578251825591602001919060010190610310565b5b509050610339919061035e565b5090565b508054600082559060005260206000209081019061035b9190610383565b50565b61038091905b8082111561037c576000816000905550600101610364565b5090565b90565b6103ac91905b808211156103a8576000818161039f91906103af565b50600101610389565b5090565b90565b50805460018160011615610100020316600290046000825580601f106103d557506103f4565b601f0160209004906000526020600020908101906103f3919061035e565b5b50565b600082601f83011261040857600080fd5b813561041b6104168261059d565b610570565b9150808252602083016020830185838301111561043757600080fd5b61044283828461061e565b50505092915050565b60006020828403121561045d57600080fd5b600082013567ffffffffffffffff81111561047757600080fd5b610483848285016103f7565b91505092915050565b60006104988383610515565b905092915050565b60006104ab826105d9565b6104b581856105fc565b9350836020820285016104c7856105c9565b8060005b8581101561050357848403895281516104e4858261048c565b94506104ef836105ef565b925060208a019950506001810190506104cb565b50829750879550505050505092915050565b6000610520826105e4565b61052a818561060d565b935061053a81856020860161062d565b61054381610660565b840191505092915050565b6000602082019050818103600083015261056881846104a0565b905092915050565b6000604051905081810181811067ffffffffffffffff8211171561059357600080fd5b8060405250919050565b600067ffffffffffffffff8211156105b457600080fd5b601f19601f8301169050602081019050919050565b6000819050602082019050919050565b600081519050919050565b600081519050919050565b6000602082019050919050565b600082825260208201905092915050565b600082825260208201905092915050565b82818337600083830152505050565b60005b8381101561064b578082015181840152602081019050610630565b8381111561065a576000848401525b50505050565b6000601f19601f830116905091905056fea26469706673582212207cd4d82639aaac3ba84087e62fb6c1c7a7670820a547cb325ccb9bfd4c89671564736f6c63430006020033",
  "source": "pragma solidity >=0.4.21 <0.7.0;\r\n\r\npragma experimental ABIEncoderV2;\r\n\r\n// SPDX-License-Identifier: MIT\r\ncontract IpArray {\r\n    string[] nodes = ['first ip'];\r\n\r\n    function addNode(string memory ipAddress) public returns (string[] memory) {\r\n        nodes.push(ipAddress);\r\n\r\n        return nodes;\r\n    }\r\n\r\n    function getNodes() public view returns (string[] memory) {\r\n        return nodes;\r\n    }\r\n\r\n    function clearNodes() public {\r\n        delete nodes;\r\n    }\r\n}\r\n",
  "sourcePath": "D:\\blockchain\\blockchain\\etheruem\\truffle-react\\contracts\\IpArray.sol",
  "compiler": {
    "name": "solc",
    "version": "0.6.2+commit.bacdbe57.Emscripten.clang"
  },
  "schemaVersion": "3.4.3",
  "updatedAt": "2022-02-08T02:49:36.322Z",
  "networkType": "ethereum",
  "devdoc": {
    "methods": {}
  },
  "userdoc": {
    "methods": {}
  }
}