{
  "contractName": "PureDnn",
  "abi": [
    {
      "inputs": [
        {
          "internalType": "string",
          "name": "",
          "type": "string"
        }
      ],
      "name": "models",
      "outputs": [
        {
          "internalType": "string",
          "name": "model_hash",
          "type": "string"
        },
        {
          "internalType": "string",
          "name": "testset_hash",
          "type": "string"
        },
        {
          "internalType": "string",
          "name": "accuracy",
          "type": "string"
        },
        {
          "internalType": "bool",
          "name": "isAdded",
          "type": "bool"
        }
      ],
      "stateMutability": "view",
      "type": "function",
      "constant": true
    },
    {
      "inputs": [
        {
          "internalType": "string",
          "name": "modelName",
          "type": "string"
        },
        {
          "internalType": "string",
          "name": "model_hash",
          "type": "string"
        },
        {
          "internalType": "string",
          "name": "testset_hash",
          "type": "string"
        },
        {
          "internalType": "string",
          "name": "accuracy",
          "type": "string"
        }
      ],
      "name": "addNewModel",
      "outputs": [],
      "stateMutability": "nonpayable",
      "type": "function"
    },
    {
      "inputs": [
        {
          "internalType": "string",
          "name": "modelName",
          "type": "string"
        },
        {
          "internalType": "string",
          "name": "node",
          "type": "string"
        }
      ],
      "name": "addNode",
      "outputs": [],
      "stateMutability": "nonpayable",
      "type": "function"
    },
    {
      "inputs": [
        {
          "internalType": "string",
          "name": "modelName",
          "type": "string"
        }
      ],
      "name": "getModelInfo",
      "outputs": [
        {
          "components": [
            {
              "internalType": "string",
              "name": "model_hash",
              "type": "string"
            },
            {
              "internalType": "string",
              "name": "testset_hash",
              "type": "string"
            },
            {
              "internalType": "string",
              "name": "accuracy",
              "type": "string"
            }
          ],
          "internalType": "struct PureDnn.ModelInfo",
          "name": "",
          "type": "tuple"
        }
      ],
      "stateMutability": "view",
      "type": "function",
      "constant": true
    },
    {
      "inputs": [
        {
          "internalType": "string",
          "name": "modelName",
          "type": "string"
        }
      ],
      "name": "getModelHash",
      "outputs": [
        {
          "internalType": "string",
          "name": "",
          "type": "string"
        }
      ],
      "stateMutability": "view",
      "type": "function",
      "constant": true
    },
    {
      "inputs": [
        {
          "internalType": "string",
          "name": "modelName",
          "type": "string"
        }
      ],
      "name": "getTestsetHash",
      "outputs": [
        {
          "internalType": "string",
          "name": "",
          "type": "string"
        }
      ],
      "stateMutability": "view",
      "type": "function",
      "constant": true
    },
    {
      "inputs": [
        {
          "internalType": "string",
          "name": "modelName",
          "type": "string"
        }
      ],
      "name": "getNodes",
      "outputs": [
        {
          "internalType": "string[]",
          "name": "",
          "type": "string[]"
        }
      ],
      "stateMutability": "view",
      "type": "function",
      "constant": true
    },
    {
      "inputs": [
        {
          "internalType": "string",
          "name": "modelName",
          "type": "string"
        }
      ],
      "name": "clearNodes",
      "outputs": [],
      "stateMutability": "nonpayable",
      "type": "function"
    },
    {
      "inputs": [
        {
          "internalType": "string",
          "name": "modelName",
          "type": "string"
        },
        {
          "internalType": "string",
          "name": "model_hash",
          "type": "string"
        }
      ],
      "name": "updateModel",
      "outputs": [],
      "stateMutability": "nonpayable",
      "type": "function"
    },
    {
      "inputs": [
        {
          "internalType": "string",
          "name": "modelName",
          "type": "string"
        },
        {
          "internalType": "string",
          "name": "testset_hash",
          "type": "string"
        }
      ],
      "name": "updateTestset",
      "outputs": [],
      "stateMutability": "nonpayable",
      "type": "function"
    }
  ],
  "bytecode": "0x6080604052600a60015534801561001557600080fd5b5061157b806100256000396000f3fe608060405234801561001057600080fd5b506004361061009e5760003560e01c80639fb8657b116100665780639fb8657b14610157578063a7babc3114610187578063a97a4406146101a3578063bbf8a026146101bf578063ea6b4fb8146101f25761009e565b80633f6ce70d146100a35780634902e569146100bf57806357a80266146100db5780637aa632e11461010b578063846d01d014610127575b600080fd5b6100bd60048036036100b8919081019061100d565b610222565b005b6100d960048036036100d49190810190610fcc565b61025c565b005b6100f560048036036100f09190810190610fcc565b61028c565b6040516101029190611347565b60405180910390f35b6101256004803603610120919081019061100d565b61034f565b005b610141600480360361013c9190810190610fcc565b610389565b60405161014e9190611347565b60405180910390f35b610171600480360361016c9190810190610fcc565b61044c565b60405161017e9190611325565b60405180910390f35b6101a1600480360361019c9190810190611079565b610556565b005b6101bd60048036036101b8919081019061100d565b61067a565b005b6101d960048036036101d49190810190610f8b565b610708565b6040516101e99493929190611369565b60405180910390f35b61020c60048036036102079190810190610fcc565b610923565b60405161021991906113c3565b60405180910390f35b80600083604051610233919061130e565b90815260200160405180910390206001019080519060200190610257929190610c77565b505050565b60008160405161026c919061130e565b908152602001604051809103902060030160006102899190610cf7565b50565b606060008260405161029e919061130e565b90815260200160405180910390206001018054600181600116156101000203166002900480601f0160208091040260200160405190810160405280929190818152602001828054600181600116156101000203166002900480156103435780601f1061031857610100808354040283529160200191610343565b820191906000526020600020905b81548152906001019060200180831161032657829003601f168201915b50505050509050919050565b80600083604051610360919061130e565b90815260200160405180910390206000019080519060200190610384929190610c77565b505050565b606060008260405161039b919061130e565b90815260200160405180910390206000018054600181600116156101000203166002900480601f0160208091040260200160405190810160405280929190818152602001828054600181600116156101000203166002900480156104405780601f1061041557610100808354040283529160200191610440565b820191906000526020600020905b81548152906001019060200180831161042357829003601f168201915b50505050509050919050565b606060008260405161045e919061130e565b9081526020016040518091039020600301805480602002602001604051908101604052809291908181526020016000905b8282101561054b578382906000526020600020018054600181600116156101000203166002900480601f0160208091040260200160405190810160405280929190818152602001828054600181600116156101000203166002900480156105375780601f1061050c57610100808354040283529160200191610537565b820191906000526020600020905b81548152906001019060200180831161051a57829003601f168201915b50505050508152602001906001019061048f565b505050509050919050565b6000151560008560405161056a919061130e565b908152602001604051809103902060040160009054906101000a900460ff16151514156106745760606040518060a00160405280858152602001848152602001838152602001828152602001600115158152506000866040516105cd919061130e565b908152602001604051809103902060008201518160000190805190602001906105f7929190610d18565b506020820151816001019080519060200190610614929190610d18565b506040820151816002019080519060200190610631929190610d18565b50606082015181600301908051906020019061064e929190610d98565b5060808201518160040160006101000a81548160ff021916908315150217905550905050505b50505050565b60015460008360405161068d919061130e565b9081526020016040518091039020600301805490501015610704576000826040516106b8919061130e565b908152602001604051809103902060030181908060018154018082558091505060019003906000526020600020016000909190919091509080519060200190610702929190610c77565b505b5050565b600081805160208101820180518482526020830160208501208183528095505050505050600091509050806000018054600181600116156101000203166002900480601f0160208091040260200160405190810160405280929190818152602001828054600181600116156101000203166002900480156107ca5780601f1061079f576101008083540402835291602001916107ca565b820191906000526020600020905b8154815290600101906020018083116107ad57829003601f168201915b505050505090806001018054600181600116156101000203166002900480601f0160208091040260200160405190810160405280929190818152602001828054600181600116156101000203166002900480156108685780601f1061083d57610100808354040283529160200191610868565b820191906000526020600020905b81548152906001019060200180831161084b57829003601f168201915b505050505090806002018054600181600116156101000203166002900480601f0160208091040260200160405190810160405280929190818152602001828054600181600116156101000203166002900480156109065780601f106108db57610100808354040283529160200191610906565b820191906000526020600020905b8154815290600101906020018083116108e957829003601f168201915b5050505050908060040160009054906101000a900460ff16905084565b61092b610df8565b610933610e19565b600083604051610943919061130e565b90815260200160405180910390206040518060a0016040529081600082018054600181600116156101000203166002900480601f0160208091040260200160405190810160405280929190818152602001828054600181600116156101000203166002900480156109f55780601f106109ca576101008083540402835291602001916109f5565b820191906000526020600020905b8154815290600101906020018083116109d857829003601f168201915b50505050508152602001600182018054600181600116156101000203166002900480601f016020809104026020016040519081016040528092919081815260200182805460018160011615610100020316600290048015610a975780601f10610a6c57610100808354040283529160200191610a97565b820191906000526020600020905b815481529060010190602001808311610a7a57829003601f168201915b50505050508152602001600282018054600181600116156101000203166002900480601f016020809104026020016040519081016040528092919081815260200182805460018160011615610100020316600290048015610b395780601f10610b0e57610100808354040283529160200191610b39565b820191906000526020600020905b815481529060010190602001808311610b1c57829003601f168201915b5050505050815260200160038201805480602002602001604051908101604052809291908181526020016000905b82821015610c23578382906000526020600020018054600181600116156101000203166002900480601f016020809104026020016040519081016040528092919081815260200182805460018160011615610100020316600290048015610c0f5780601f10610be457610100808354040283529160200191610c0f565b820191906000526020600020905b815481529060010190602001808311610bf257829003601f168201915b505050505081526020019060010190610b67565b5050505081526020016004820160009054906101000a900460ff1615151515815250509050604051806060016040528082600001518152602001826020015181526020018260400151815250915050919050565b828054600181600116156101000203166002900490600052602060002090601f016020900481019282601f10610cb857805160ff1916838001178555610ce6565b82800160010185558215610ce6579182015b82811115610ce5578251825591602001919060010190610cca565b5b509050610cf39190610e4a565b5090565b5080546000825590600052602060002090810190610d159190610e6f565b50565b828054600181600116156101000203166002900490600052602060002090601f016020900481019282601f10610d5957805160ff1916838001178555610d87565b82800160010185558215610d87579182015b82811115610d86578251825591602001919060010190610d6b565b5b509050610d949190610e4a565b5090565b828054828255906000526020600020908101928215610de7579160200282015b82811115610de6578251829080519060200190610dd6929190610d18565b5091602001919060010190610db8565b5b509050610df49190610e6f565b5090565b60405180606001604052806060815260200160608152602001606081525090565b6040518060a00160405280606081526020016060815260200160608152602001606081526020016000151581525090565b610e6c91905b80821115610e68576000816000905550600101610e50565b5090565b90565b610e9891905b80821115610e945760008181610e8b9190610e9b565b50600101610e75565b5090565b90565b50805460018160011615610100020316600290046000825580601f10610ec15750610ee0565b601f016020900490600052602060002090810190610edf9190610e4a565b5b50565b600082601f830112610ef457600080fd5b8135610f07610f0282611412565b6113e5565b91508082526020830160208301858383011115610f2357600080fd5b610f2e8382846114f2565b50505092915050565b600082601f830112610f4857600080fd5b8135610f5b610f568261143e565b6113e5565b91508082526020830160208301858383011115610f7757600080fd5b610f828382846114f2565b50505092915050565b600060208284031215610f9d57600080fd5b600082013567ffffffffffffffff811115610fb757600080fd5b610fc384828501610ee3565b91505092915050565b600060208284031215610fde57600080fd5b600082013567ffffffffffffffff811115610ff857600080fd5b61100484828501610f37565b91505092915050565b6000806040838503121561102057600080fd5b600083013567ffffffffffffffff81111561103a57600080fd5b61104685828601610f37565b925050602083013567ffffffffffffffff81111561106357600080fd5b61106f85828601610f37565b9150509250929050565b6000806000806080858703121561108f57600080fd5b600085013567ffffffffffffffff8111156110a957600080fd5b6110b587828801610f37565b945050602085013567ffffffffffffffff8111156110d257600080fd5b6110de87828801610f37565b935050604085013567ffffffffffffffff8111156110fb57600080fd5b61110787828801610f37565b925050606085013567ffffffffffffffff81111561112457600080fd5b61113087828801610f37565b91505092959194509250565b6000611148838361123e565b905092915050565b600061115b8261147a565b61116581856114a8565b9350836020820285016111778561146a565b8060005b858110156111b35784840389528151611194858261113c565b945061119f8361149b565b925060208a0199505060018101905061117b565b50829750879550505050505092915050565b6111ce816114e6565b82525050565b60006111df82611490565b6111e981856114ca565b93506111f9818560208601611501565b61120281611534565b840191505092915050565b600061121882611490565b61122281856114db565b9350611232818560208601611501565b80840191505092915050565b600061124982611485565b61125381856114b9565b9350611263818560208601611501565b61126c81611534565b840191505092915050565b600061128282611485565b61128c81856114ca565b935061129c818560208601611501565b6112a581611534565b840191505092915050565b600060608301600083015184820360008601526112cd828261123e565b915050602083015184820360208601526112e7828261123e565b91505060408301518482036040860152611301828261123e565b9150508091505092915050565b600061131a828461120d565b915081905092915050565b6000602082019050818103600083015261133f8184611150565b905092915050565b6000602082019050818103600083015261136181846111d4565b905092915050565b600060808201905081810360008301526113838187611277565b905081810360208301526113978186611277565b905081810360408301526113ab8185611277565b90506113ba60608301846111c5565b95945050505050565b600060208201905081810360008301526113dd81846112b0565b905092915050565b6000604051905081810181811067ffffffffffffffff8211171561140857600080fd5b8060405250919050565b600067ffffffffffffffff82111561142957600080fd5b601f19601f8301169050602081019050919050565b600067ffffffffffffffff82111561145557600080fd5b601f19601f8301169050602081019050919050565b6000819050602082019050919050565b600081519050919050565b600081519050919050565b600081519050919050565b6000602082019050919050565b600082825260208201905092915050565b600082825260208201905092915050565b600082825260208201905092915050565b600081905092915050565b60008115159050919050565b82818337600083830152505050565b60005b8381101561151f578082015181840152602081019050611504565b8381111561152e576000848401525b50505050565b6000601f19601f830116905091905056fea26469706673582212203bf9697a6d7a1f28885e44091137e2ca8e9c67084f231de0ad9e3fabba088a0c64736f6c63430006020033",
  "source": "pragma solidity >=0.4.21 <0.7.0;\r\n\r\npragma experimental ABIEncoderV2;\r\n\r\n// SPDX-License-Identifier: MIT\r\ncontract PureDnn {\r\n    struct Model {\r\n        // the model params hash stored in IPFS\r\n        string model_hash;\r\n        // the testset hash stored in IPFS\r\n        string testset_hash;\r\n        // current accuracy\r\n        string accuracy;\r\n        // used to build up the distributed training network\r\n        string[] nodes;\r\n        // to determine if it is added\r\n        bool isAdded;\r\n    }\r\n\r\n    struct ModelInfo {\r\n        // the model params hash stored in IPFS\r\n        string model_hash;\r\n        // the testset hash stored in IPFS\r\n        string testset_hash;\r\n        // current accuracy\r\n        string accuracy;\r\n    }\r\n\r\n    // indice according to the model name\r\n    mapping(string => Model) public models;\r\n\r\n    // maximum 10 nodes\r\n    uint256 max_node_num = 10;\r\n\r\n    function addNewModel(\r\n        string memory modelName,\r\n        string memory model_hash,\r\n        string memory testset_hash,\r\n        string memory accuracy\r\n    ) public {\r\n        // if the model doesnt exist\r\n        if (models[modelName].isAdded == false) {\r\n            string[] memory initNodes;\r\n\r\n            models[modelName] = Model({\r\n                model_hash: model_hash,\r\n                testset_hash: testset_hash,\r\n                accuracy: accuracy,\r\n                nodes: initNodes,\r\n                isAdded: true\r\n            });\r\n        }\r\n    }\r\n\r\n    function addNode(string memory modelName, string memory node) public {\r\n        if (models[modelName].nodes.length < max_node_num) {\r\n            models[modelName].nodes.push(node);\r\n        }\r\n    }\r\n\r\n    // only return the model_hash, testset_hash and accuracy\r\n    function getModelInfo(string memory modelName)\r\n        public\r\n        view\r\n        returns (ModelInfo memory)\r\n    {\r\n        Model memory queryModel = models[modelName];\r\n\r\n        return\r\n            ModelInfo({\r\n                model_hash: queryModel.model_hash,\r\n                testset_hash: queryModel.testset_hash,\r\n                accuracy: queryModel.accuracy\r\n            });\r\n    }\r\n\r\n    function getModelHash(string memory modelName)\r\n        public\r\n        view\r\n        returns (string memory)\r\n    {\r\n        return models[modelName].model_hash;\r\n    }\r\n\r\n    function getTestsetHash(string memory modelName)\r\n        public\r\n        view\r\n        returns (string memory)\r\n    {\r\n        return models[modelName].testset_hash;\r\n    }\r\n\r\n    function getNodes(string memory modelName)\r\n        public\r\n        view\r\n        returns (string[] memory)\r\n    {\r\n        return models[modelName].nodes;\r\n    }\r\n\r\n    function clearNodes(string memory modelName) public {\r\n        delete models[modelName].nodes;\r\n    }\r\n\r\n    function updateModel(string memory modelName, string memory model_hash)\r\n        public\r\n    {\r\n        models[modelName].model_hash = model_hash;\r\n    }\r\n\r\n    function updateTestset(string memory modelName, string memory testset_hash)\r\n        public\r\n    {\r\n        models[modelName].testset_hash = testset_hash;\r\n    }\r\n}\r\n",
  "sourcePath": "D:\\blockchain\\blockchain\\etheruem\\truffle-react\\contracts\\PureDnn.sol",
  "compiler": {
    "name": "solc",
    "version": "0.6.2+commit.bacdbe57.Emscripten.clang"
  },
  "schemaVersion": "3.4.3",
  "updatedAt": "2022-03-04T03:29:27.659Z",
  "networkType": "ethereum",
  "devdoc": {
    "methods": {}
  },
  "userdoc": {
    "methods": {}
  }
}