{
  "contractName": "SingleModelStorage",
  "abi": [
    {
      "inputs": [
        {
          "internalType": "uint256",
          "name": "",
          "type": "uint256"
        }
      ],
      "name": "model_map",
      "outputs": [
        {
          "internalType": "uint8",
          "name": "",
          "type": "uint8"
        }
      ],
      "stateMutability": "view",
      "type": "function",
      "constant": true
    },
    {
      "inputs": [
        {
          "internalType": "uint8",
          "name": "len",
          "type": "uint8"
        }
      ],
      "name": "initModel",
      "outputs": [],
      "stateMutability": "nonpayable",
      "type": "function"
    },
    {
      "inputs": [
        {
          "internalType": "string",
          "name": "new_model",
          "type": "string"
        },
        {
          "internalType": "uint256",
          "name": "batch",
          "type": "uint256"
        }
      ],
      "name": "set",
      "outputs": [],
      "stateMutability": "nonpayable",
      "type": "function"
    },
    {
      "inputs": [
        {
          "internalType": "uint8[]",
          "name": "new_model",
          "type": "uint8[]"
        },
        {
          "internalType": "uint256",
          "name": "batch",
          "type": "uint256"
        }
      ],
      "name": "setMap",
      "outputs": [],
      "stateMutability": "nonpayable",
      "type": "function"
    },
    {
      "inputs": [],
      "name": "get",
      "outputs": [
        {
          "internalType": "string",
          "name": "",
          "type": "string"
        }
      ],
      "stateMutability": "view",
      "type": "function",
      "constant": true
    },
    {
      "inputs": [],
      "name": "getMap",
      "outputs": [
        {
          "internalType": "uint8[]",
          "name": "",
          "type": "uint8[]"
        }
      ],
      "stateMutability": "view",
      "type": "function",
      "constant": true
    },
    {
      "inputs": [
        {
          "internalType": "string",
          "name": "s1",
          "type": "string"
        },
        {
          "internalType": "string",
          "name": "s2",
          "type": "string"
        }
      ],
      "name": "concat",
      "outputs": [
        {
          "internalType": "bytes",
          "name": "",
          "type": "bytes"
        }
      ],
      "stateMutability": "pure",
      "type": "function",
      "constant": true
    }
  ],
  "bytecode": "0x608060405234801561001057600080fd5b50610b9f806100206000396000f3fe608060405234801561001057600080fd5b506004361061007d5760003560e01c80638a42ebe91161005b5780638a42ebe914610100578063952cf5bf1461011c578063ad3de14c14610138578063f76c1593146101565761007d565b80636bfc07b0146100825780636d4ce63c146100b257806389c19ddb146100d0575b600080fd5b61009c60048036036100979190810190610806565b610172565b6040516100a991906109c4565b60405180910390f35b6100ba610192565b6040516100c791906109a2565b60405180910390f35b6100ea60048036036100e59190810190610746565b610234565b6040516100f79190610980565b60405180910390f35b61011a600480360361011591908101906107b2565b61037d565b005b6101366004803603610131919081019061082f565b61043b565b005b61014061043e565b60405161014d919061095e565b60405180910390f35b610170600480360361016b91908101906106f2565b6104e0565b005b60016020528060005260406000206000915054906101000a900460ff1681565b606060008054600181600116156101000203166002900480601f01602080910402602001604051908101604052809291908181526020018280546001816001161561010002031660029004801561022a5780601f106101ff5761010080835404028352916020019161022a565b820191906000526020600020905b81548152906001019060200180831161020d57829003601f168201915b5050505050905090565b6060808390506060839050606081518351016040519080825280601f01601f1916602001820160405280156102785781602001600182028038833980820191505090505b5090506060819050600080905060008090505b85518110156102f9578581815181106102a057fe5b602001015160f81c60f81b8383806001019450815181106102bd57fe5b60200101907effffffffffffffffffffffffffffffffffffffffffffffffffffffffffffff1916908160001a905350808060010191505061028b565b5060008090505b845181101561036e5784818151811061031557fe5b602001015160f81c60f81b83838060010194508151811061033257fe5b60200101907effffffffffffffffffffffffffffffffffffffffffffffffffffffffffffff1916908160001a9053508080600101915050610300565b50819550505050505092915050565b61042160008054600181600116156101000203166002900480601f0160208091040260200160405190810160405280929190818152602001828054600181600116156101000203166002900480156104165780601f106103eb57610100808354040283529160200191610416565b820191906000526020600020905b8154815290600101906020018083116103f957829003601f168201915b505050505083610234565b6000908051906020019061043692919061054c565b505050565b50565b606060006131af90506060816040519080825280602002602001820160405280156104785781602001602082028038833980820191505090505b50905060008090505b828110156104d7576001600082815260200190815260200160002060009054906101000a900460ff168282815181106104b657fe5b602002602001019060ff16908160ff16815250508080600101915050610481565b50809250505090565b60008090505b8251811015610547576000816101f4840201905083828151811061050657fe5b60200260200101516001600083815260200190815260200160002060006101000a81548160ff021916908360ff1602179055505080806001019150506104e6565b505050565b828054600181600116156101000203166002900490600052602060002090601f016020900481019282601f1061058d57805160ff19168380011785556105bb565b828001600101855582156105bb579182015b828111156105ba57825182559160200191906001019061059f565b5b5090506105c891906105cc565b5090565b6105ee91905b808211156105ea5760008160009055506001016105d2565b5090565b90565b600082601f83011261060257600080fd5b813561061561061082610a0c565b6109df565b9150818183526020840193506020810190508385602084028201111561063a57600080fd5b60005b8381101561066a578161065088826106dd565b84526020840193506020830192505060018101905061063d565b5050505092915050565b600082601f83011261068557600080fd5b813561069861069382610a34565b6109df565b915080825260208301602083018583830111156106b457600080fd5b6106bf838284610ae8565b50505092915050565b6000813590506106d781610b3b565b92915050565b6000813590506106ec81610b52565b92915050565b6000806040838503121561070557600080fd5b600083013567ffffffffffffffff81111561071f57600080fd5b61072b858286016105f1565b925050602061073c858286016106c8565b9150509250929050565b6000806040838503121561075957600080fd5b600083013567ffffffffffffffff81111561077357600080fd5b61077f85828601610674565b925050602083013567ffffffffffffffff81111561079c57600080fd5b6107a885828601610674565b9150509250929050565b600080604083850312156107c557600080fd5b600083013567ffffffffffffffff8111156107df57600080fd5b6107eb85828601610674565b92505060206107fc858286016106c8565b9150509250929050565b60006020828403121561081857600080fd5b6000610826848285016106c8565b91505092915050565b60006020828403121561084157600080fd5b600061084f848285016106dd565b91505092915050565b60006108648383610940565b60208301905092915050565b600061087b82610a70565b6108858185610a9e565b935061089083610a60565b8060005b838110156108c15781516108a88882610858565b97506108b383610a91565b925050600181019050610894565b5085935050505092915050565b60006108d982610a7b565b6108e38185610aaf565b93506108f3818560208601610af7565b6108fc81610b2a565b840191505092915050565b600061091282610a86565b61091c8185610ac0565b935061092c818560208601610af7565b61093581610b2a565b840191505092915050565b61094981610adb565b82525050565b61095881610adb565b82525050565b600060208201905081810360008301526109788184610870565b905092915050565b6000602082019050818103600083015261099a81846108ce565b905092915050565b600060208201905081810360008301526109bc8184610907565b905092915050565b60006020820190506109d9600083018461094f565b92915050565b6000604051905081810181811067ffffffffffffffff82111715610a0257600080fd5b8060405250919050565b600067ffffffffffffffff821115610a2357600080fd5b602082029050602081019050919050565b600067ffffffffffffffff821115610a4b57600080fd5b601f19601f8301169050602081019050919050565b6000819050602082019050919050565b600081519050919050565b600081519050919050565b600081519050919050565b6000602082019050919050565b600082825260208201905092915050565b600082825260208201905092915050565b600082825260208201905092915050565b6000819050919050565b600060ff82169050919050565b82818337600083830152505050565b60005b83811015610b15578082015181840152602081019050610afa565b83811115610b24576000848401525b50505050565b6000601f19601f8301169050919050565b610b4481610ad1565b8114610b4f57600080fd5b50565b610b5b81610adb565b8114610b6657600080fd5b5056fea2646970667358221220b82c712f4d4eeb893bde9f03d1f971d1f6246fa1c0a4b130974ae05125c0441d64736f6c63430006020033",
  "source": "// SPDX-License-Identifier: MIT\r\npragma solidity >=0.4.21 <0.7.0;\r\n\r\npragma experimental ABIEncoderV2;\r\n\r\ncontract SingleModelStorage {\r\n    string model;\r\n\r\n    mapping(uint256 => uint8) public model_map;\r\n\r\n    function initModel(uint8 len) public {\r\n        // model = bytes(new string(len));\r\n        // model = new string(len);\r\n    }\r\n\r\n    function set(string memory new_model, uint256 batch) public {\r\n        model = string(concat(model, new_model));\r\n        // bytes memory new_model_byte = bytes(new_model);\r\n        // for (uint256 i = 0; i < new_model_byte.length; i++) {\r\n        //     // model[start++] = new_model[i];\r\n        //     uint256 idx = batch * 1000 + i;\r\n\r\n        //     model[idx] = new_model_byte[i];\r\n        // }\r\n    }\r\n\r\n    function setMap(uint8[] memory new_model, uint256 batch) public {\r\n        for (uint256 i = 0; i < new_model.length; i++) {\r\n            // model[start++] = new_model[i];\r\n            uint256 idx = batch * 500 + i;\r\n\r\n            model_map[idx] = new_model[i];\r\n        }\r\n    }\r\n\r\n    function get() public view returns (string memory) {\r\n        return string(model);\r\n    }\r\n\r\n    function getMap() public view returns (uint8[] memory) {\r\n        uint256 len = 12719;\r\n\r\n        uint8[] memory ret = new uint8[](len);\r\n\r\n        for (uint256 i = 0; i < len; i++) {\r\n            ret[i] = model_map[i];\r\n        }\r\n\r\n        return ret;\r\n    }\r\n\r\n    function concat(string memory s1, string memory s2)\r\n        public\r\n        pure\r\n        returns (bytes memory)\r\n    {\r\n        bytes memory s1_byte = bytes(s1);\r\n        bytes memory s2_byte = bytes(s2);\r\n\r\n        string memory concat_str = new string(s1_byte.length + s2_byte.length);\r\n\r\n        bytes memory bytes_concat_str = bytes(concat_str);\r\n\r\n        uint256 k = 0;\r\n\r\n        for (uint256 i = 0; i < s1_byte.length; i++) {\r\n            bytes_concat_str[k++] = s1_byte[i];\r\n        }\r\n\r\n        for (uint256 i = 0; i < s2_byte.length; i++) {\r\n            bytes_concat_str[k++] = s2_byte[i];\r\n        }\r\n\r\n        return bytes_concat_str;\r\n    }\r\n}\r\n",
  "sourcePath": "D:\\blockchain\\blockchain\\etheruem\\truffle-react\\contracts\\SingleModelStorage.sol",
  "compiler": {
    "name": "solc",
    "version": "0.6.2+commit.bacdbe57.Emscripten.clang"
  },
  "schemaVersion": "3.4.3",
  "updatedAt": "2022-01-16T01:15:37.685Z",
  "networkType": "ethereum",
  "devdoc": {
    "methods": {}
  },
  "userdoc": {
    "methods": {}
  }
}