{
  "contractName": "SingleModelStorage",
  "abi": [
    {
      "inputs": [
        {
          "internalType": "uint256",
          "name": "",
          "type": "uint256"
        }
      ],
      "name": "model_map",
      "outputs": [
        {
          "internalType": "uint8",
          "name": "",
          "type": "uint8"
        }
      ],
      "stateMutability": "view",
      "type": "function"
    },
    {
      "inputs": [
        {
          "internalType": "uint8",
          "name": "len",
          "type": "uint8"
        }
      ],
      "name": "initModel",
      "outputs": [],
      "stateMutability": "nonpayable",
      "type": "function"
    },
    {
      "inputs": [
        {
          "internalType": "string",
          "name": "new_model",
          "type": "string"
        }
      ],
      "name": "set",
      "outputs": [],
      "stateMutability": "nonpayable",
      "type": "function"
    },
    {
      "inputs": [
        {
          "internalType": "uint8[]",
          "name": "new_model",
          "type": "uint8[]"
        },
        {
          "internalType": "uint256",
          "name": "batch",
          "type": "uint256"
        }
      ],
      "name": "setMap",
      "outputs": [],
      "stateMutability": "nonpayable",
      "type": "function"
    },
    {
      "inputs": [],
      "name": "get",
      "outputs": [
        {
          "internalType": "string",
          "name": "",
          "type": "string"
        }
      ],
      "stateMutability": "view",
      "type": "function"
    },
    {
      "inputs": [],
      "name": "getMap",
      "outputs": [
        {
          "internalType": "uint8[]",
          "name": "",
          "type": "uint8[]"
        }
      ],
      "stateMutability": "view",
      "type": "function"
    },
    {
      "inputs": [
        {
          "internalType": "string",
          "name": "s1",
          "type": "string"
        },
        {
          "internalType": "string",
          "name": "s2",
          "type": "string"
        }
      ],
      "name": "concat",
      "outputs": [
        {
          "internalType": "bytes",
          "name": "",
          "type": "bytes"
        }
      ],
      "stateMutability": "pure",
      "type": "function"
    }
  ],
  "bytecode": "0x608060405234801561001057600080fd5b50610b8b806100206000396000f3fe608060405234801561001057600080fd5b506004361061007d5760003560e01c806389c19ddb1161005b57806389c19ddb146100ec578063952cf5bf1461011c578063ad3de14c14610138578063f76c1593146101565761007d565b80634ed3885e146100825780636bfc07b01461009e5780636d4ce63c146100ce575b600080fd5b61009c60048036036100979190810190610745565b610172565b005b6100b860048036036100b391908101906107f2565b61022f565b6040516100c591906109b0565b60405180910390f35b6100d661024f565b6040516100e3919061098e565b60405180910390f35b61010660048036036101019190810190610786565b6102f1565b604051610113919061096c565b60405180910390f35b6101366004803603610131919081019061081b565b61043a565b005b61014061043d565b60405161014d919061094a565b60405180910390f35b610170600480360361016b91908101906106f1565b6104df565b005b61021660008054600181600116156101000203166002900480601f01602080910402602001604051908101604052809291908181526020018280546001816001161561010002031660029004801561020b5780601f106101e05761010080835404028352916020019161020b565b820191906000526020600020905b8154815290600101906020018083116101ee57829003601f168201915b5050505050826102f1565b6000908051906020019061022b92919061054b565b5050565b60016020528060005260406000206000915054906101000a900460ff1681565b606060008054600181600116156101000203166002900480601f0160208091040260200160405190810160405280929190818152602001828054600181600116156101000203166002900480156102e75780601f106102bc576101008083540402835291602001916102e7565b820191906000526020600020905b8154815290600101906020018083116102ca57829003601f168201915b5050505050905090565b6060808390506060839050606081518351016040519080825280601f01601f1916602001820160405280156103355781602001600182028038833980820191505090505b5090506060819050600080905060008090505b85518110156103b65785818151811061035d57fe5b602001015160f81c60f81b83838060010194508151811061037a57fe5b60200101907effffffffffffffffffffffffffffffffffffffffffffffffffffffffffffff1916908160001a9053508080600101915050610348565b5060008090505b845181101561042b578481815181106103d257fe5b602001015160f81c60f81b8383806001019450815181106103ef57fe5b60200101907effffffffffffffffffffffffffffffffffffffffffffffffffffffffffffff1916908160001a90535080806001019150506103bd565b50819550505050505092915050565b50565b606060006131af90506060816040519080825280602002602001820160405280156104775781602001602082028038833980820191505090505b50905060008090505b828110156104d6576001600082815260200190815260200160002060009054906101000a900460ff168282815181106104b557fe5b602002602001019060ff16908160ff16815250508080600101915050610480565b50809250505090565b60008090505b8251811015610546576000816101f4840201905083828151811061050557fe5b60200260200101516001600083815260200190815260200160002060006101000a81548160ff021916908360ff1602179055505080806001019150506104e5565b505050565b828054600181600116156101000203166002900490600052602060002090601f016020900481019282601f1061058c57805160ff19168380011785556105ba565b828001600101855582156105ba579182015b828111156105b957825182559160200191906001019061059e565b5b5090506105c791906105cb565b5090565b6105ed91905b808211156105e95760008160009055506001016105d1565b5090565b90565b600082601f83011261060157600080fd5b813561061461060f826109f8565b6109cb565b9150818183526020840193506020810190508385602084028201111561063957600080fd5b60005b83811015610669578161064f88826106dc565b84526020840193506020830192505060018101905061063c565b5050505092915050565b600082601f83011261068457600080fd5b813561069761069282610a20565b6109cb565b915080825260208301602083018583830111156106b357600080fd5b6106be838284610ad4565b50505092915050565b6000813590506106d681610b27565b92915050565b6000813590506106eb81610b3e565b92915050565b6000806040838503121561070457600080fd5b600083013567ffffffffffffffff81111561071e57600080fd5b61072a858286016105f0565b925050602061073b858286016106c7565b9150509250929050565b60006020828403121561075757600080fd5b600082013567ffffffffffffffff81111561077157600080fd5b61077d84828501610673565b91505092915050565b6000806040838503121561079957600080fd5b600083013567ffffffffffffffff8111156107b357600080fd5b6107bf85828601610673565b925050602083013567ffffffffffffffff8111156107dc57600080fd5b6107e885828601610673565b9150509250929050565b60006020828403121561080457600080fd5b6000610812848285016106c7565b91505092915050565b60006020828403121561082d57600080fd5b600061083b848285016106dc565b91505092915050565b6000610850838361092c565b60208301905092915050565b600061086782610a5c565b6108718185610a8a565b935061087c83610a4c565b8060005b838110156108ad5781516108948882610844565b975061089f83610a7d565b925050600181019050610880565b5085935050505092915050565b60006108c582610a67565b6108cf8185610a9b565b93506108df818560208601610ae3565b6108e881610b16565b840191505092915050565b60006108fe82610a72565b6109088185610aac565b9350610918818560208601610ae3565b61092181610b16565b840191505092915050565b61093581610ac7565b82525050565b61094481610ac7565b82525050565b60006020820190508181036000830152610964818461085c565b905092915050565b6000602082019050818103600083015261098681846108ba565b905092915050565b600060208201905081810360008301526109a881846108f3565b905092915050565b60006020820190506109c5600083018461093b565b92915050565b6000604051905081810181811067ffffffffffffffff821117156109ee57600080fd5b8060405250919050565b600067ffffffffffffffff821115610a0f57600080fd5b602082029050602081019050919050565b600067ffffffffffffffff821115610a3757600080fd5b601f19601f8301169050602081019050919050565b6000819050602082019050919050565b600081519050919050565b600081519050919050565b600081519050919050565b6000602082019050919050565b600082825260208201905092915050565b600082825260208201905092915050565b600082825260208201905092915050565b6000819050919050565b600060ff82169050919050565b82818337600083830152505050565b60005b83811015610b01578082015181840152602081019050610ae6565b83811115610b10576000848401525b50505050565b6000601f19601f8301169050919050565b610b3081610abd565b8114610b3b57600080fd5b50565b610b4781610ac7565b8114610b5257600080fd5b5056fea26469706673582212203dccf2bbfd8907e90e5b689c29a19df1da22b7bd181637facb21605395ef256d64736f6c63430006020033",
  "source": "// SPDX-License-Identifier: MIT\r\npragma solidity >=0.4.21 <0.7.0;\r\n\r\npragma experimental ABIEncoderV2;\r\n\r\ncontract SingleModelStorage {\r\n    string model;\r\n\r\n    mapping(uint256 => uint8) public model_map;\r\n\r\n    function initModel(uint8 len) public {\r\n        // model = bytes(new string(len));\r\n        // model = new string(len);\r\n    }\r\n\r\n    function set(string memory new_model) public {\r\n        model = string(concat(model, new_model));\r\n        // bytes memory new_model_byte = bytes(new_model);\r\n        // for (uint256 i = 0; i < new_model_byte.length; i++) {\r\n        //     // model[start++] = new_model[i];\r\n        //     uint256 idx = batch * 1000 + i;\r\n\r\n        //     model[idx] = new_model_byte[i];\r\n        // }\r\n    }\r\n\r\n    function setMap(uint8[] memory new_model, uint256 batch) public {\r\n        for (uint256 i = 0; i < new_model.length; i++) {\r\n            // model[start++] = new_model[i];\r\n            uint256 idx = batch * 500 + i;\r\n\r\n            model_map[idx] = new_model[i];\r\n        }\r\n    }\r\n\r\n    function get() public view returns (string memory) {\r\n        return string(model);\r\n    }\r\n\r\n    function getMap() public view returns (uint8[] memory) {\r\n        uint256 len = 12719;\r\n\r\n        uint8[] memory ret = new uint8[](len);\r\n\r\n        for (uint256 i = 0; i < len; i++) {\r\n            ret[i] = model_map[i];\r\n        }\r\n\r\n        return ret;\r\n    }\r\n\r\n    function concat(string memory s1, string memory s2)\r\n        public\r\n        pure\r\n        returns (bytes memory)\r\n    {\r\n        bytes memory s1_byte = bytes(s1);\r\n        bytes memory s2_byte = bytes(s2);\r\n\r\n        string memory concat_str = new string(s1_byte.length + s2_byte.length);\r\n\r\n        bytes memory bytes_concat_str = bytes(concat_str);\r\n\r\n        uint256 k = 0;\r\n\r\n        for (uint256 i = 0; i < s1_byte.length; i++) {\r\n            bytes_concat_str[k++] = s1_byte[i];\r\n        }\r\n\r\n        for (uint256 i = 0; i < s2_byte.length; i++) {\r\n            bytes_concat_str[k++] = s2_byte[i];\r\n        }\r\n\r\n        return bytes_concat_str;\r\n    }\r\n}\r\n",
  "sourcePath": "D:\\blockchain\\blockchain\\etheruem\\truffle-react\\contracts\\SingleModelStorage.sol",
  "compiler": {
    "name": "solc",
    "version": "0.6.2+commit.bacdbe57.Emscripten.clang"
  },
  "schemaVersion": "3.4.3",
  "updatedAt": "2022-03-04T03:28:19.550Z",
  "devdoc": {
    "methods": {}
  },
  "userdoc": {
    "methods": {}
  }
}