{
  "contractName": "SingleModelStorage",
  "abi": [
    {
      "inputs": [
        {
          "internalType": "uint256",
          "name": "x",
          "type": "uint256"
        }
      ],
      "name": "set",
      "outputs": [],
      "stateMutability": "nonpayable",
      "type": "function"
    },
    {
      "inputs": [],
      "name": "get",
      "outputs": [
        {
          "internalType": "uint256",
          "name": "",
          "type": "uint256"
        }
      ],
      "stateMutability": "view",
      "type": "function"
    },
    {
      "inputs": [],
      "name": "getLen",
      "outputs": [
        {
          "internalType": "uint256",
          "name": "",
          "type": "uint256"
        }
      ],
      "stateMutability": "view",
      "type": "function"
    },
    {
      "inputs": [
        {
          "internalType": "string",
          "name": "s1",
          "type": "string"
        },
        {
          "internalType": "string",
          "name": "s2",
          "type": "string"
        }
      ],
      "name": "strConcat",
      "outputs": [
        {
          "internalType": "string",
          "name": "",
          "type": "string"
        }
      ],
      "stateMutability": "pure",
      "type": "function"
    }
  ],
  "bytecode": "0x608060405234801561001057600080fd5b50610421806100206000396000f3fe608060405234801561001057600080fd5b506004361061004c5760003560e01c80634a90be571461005157806360fe47b11461006f5780636d4ce63c1461009d578063ff74927b146100bb575b600080fd5b610059610286565b6040518082815260200191505060405180910390f35b61009b6004803603602081101561008557600080fd5b810190808035906020019092919050505061028f565b005b6100a5610299565b6040518082815260200191505060405180910390f35b61020b600480360360408110156100d157600080fd5b81019080803590602001906401000000008111156100ee57600080fd5b82018360208201111561010057600080fd5b8035906020019184600183028401116401000000008311171561012257600080fd5b91908080601f016020809104026020016040519081016040528093929190818152602001838380828437600081840152601f19601f8201169050808301925050505050505091929192908035906020019064010000000081111561018557600080fd5b82018360208201111561019757600080fd5b803590602001918460018302840111640100000000831117156101b957600080fd5b91908080601f016020809104026020016040519081016040528093929190818152602001838380828437600081840152601f19601f8201169050808301925050505050505091929192905050506102a2565b6040518080602001828103825283818151815260200191508051906020019080838360005b8381101561024b578082015181840152602081019050610230565b50505050905090810190601f1680156102785780820380516001836020036101000a031916815260200191505b509250505060405180910390f35b60008054905090565b8060008190555050565b60008054905090565b6060808390506060839050606081518351016040519080825280601f01601f1916602001820160405280156102e65781602001600182028038833980820191505090505b5090506060819050600080905060008090505b85518110156103675785818151811061030e57fe5b602001015160f81c60f81b83838060010194508151811061032b57fe5b60200101907effffffffffffffffffffffffffffffffffffffffffffffffffffffffffffff1916908160001a90535080806001019150506102f9565b5060008090505b84518110156103dc5784818151811061038357fe5b602001015160f81c60f81b8383806001019450815181106103a057fe5b60200101907effffffffffffffffffffffffffffffffffffffffffffffffffffffffffffff1916908160001a905350808060010191505061036e565b5081955050505050509291505056fea2646970667358221220a8f8d9afcf9a7e5d03e80697e81041df005ae5af6964206d8eb47a25b4f1db9664736f6c63430006020033",
  "source": "// SPDX-License-Identifier: MIT\r\npragma solidity >=0.4.21 <0.7.0;\r\n\r\n// pragma experimental ABIEncoderV2;\r\n\r\ncontract SingleModelStorage {\r\n    // string public model;\r\n\r\n    uint len;\r\n\r\n    function set(uint x) public {\r\n        // model = strConcat(model, new_model);\r\n        len = x;\r\n    }\r\n\r\n    function get() public view returns (uint) {\r\n        return len;\r\n    }\r\n\r\n    function getLen() public view returns (uint) {\r\n        return len;\r\n    }\r\n\r\n    function strConcat(string memory s1, string memory s2)\r\n        public\r\n        pure\r\n        returns (string memory)\r\n    {\r\n        bytes memory byte_s1 = bytes(s1);\r\n        bytes memory byte_s2 = bytes(s2);\r\n\r\n        string memory concat_str = new string(byte_s1.length + byte_s2.length);\r\n\r\n        bytes memory bytes_concat_str = bytes(concat_str);\r\n\r\n        uint256 k = 0;\r\n\r\n        for (uint256 i = 0; i < byte_s1.length; i++) {\r\n            bytes_concat_str[k++] = byte_s1[i];\r\n        }\r\n\r\n        for (uint256 i = 0; i < byte_s2.length; i++) {\r\n            bytes_concat_str[k++] = byte_s2[i];\r\n        }\r\n\r\n        return string(bytes_concat_str);\r\n    }\r\n}\r\n",
  "sourcePath": "D:\\blockchain\\blockchain\\etheruem\\truffle-react\\contracts\\SingleModelStorage.sol",
  "compiler": {
    "name": "solc",
    "version": "0.6.2+commit.bacdbe57.Emscripten.clang"
  },
  "schemaVersion": "3.4.3",
  "updatedAt": "2022-01-03T05:55:19.275Z",
  "devdoc": {
    "methods": {}
  },
  "userdoc": {
    "methods": {}
  }
}